S00E000073616D706C652E7372656394
S113000032C04CC04BC04AC049C048C047C046C0BB
S113001045C044C043C042C041C040C03FC000C20C
S11300200100090000E100001100009600001B001F
S1130030127A00001D00807000002000004B0000B8
S11300403500403800004800802500007000C012D0
S11300500000E60060090000D501B0040000B1030F
S11300602C010000DA0E11241FBECFE5D2E0DEBF62
S1130070CDBF10E0A0E6B0E0E2ECF7E002C00590EE
S11300800D92A637B107D9F710E0A6E7B0E001C09A
S11300901D92A739B107E1F785D091C3B1CF20E014
S11300A030E008C0EFECF7E03197F1F700C0000052
S11300B02F5F3F4F28173907A9F7089520E00197CC
S11300C02FEF8F3F9207D9F708950F931F938B015A
S11300D09C01B99AC19AA0E0B0E0CD0166E070E05D
S11300E08BD0FC01E25EFF4F45915591659174916F
S11300F0401751076207730751F4FC01EE5DFF4F8F
S113010085919491809377009093780004C0119620
S1130110AC30B10511F71F910F910895FF920F9321
S11301201F93CF93DF93F82E2091770030917800BE
S1130130232B21F10FB7F894C19880917700909107
S113014078000496BBDFC8E0D0E011E0812F8F2156
S113015011F0C19A01C0C198809177009091780004
S1130160ADDF110F219791F7C19A0FBF80917700EE
S113017090917800A3DF21E030E002C020E030E07D
S1130180C901DF91CF911F910F91FF900895CF93F3
S1130190DF93EC0101C0C2DF89918111FCCFDF91B3
S11301A0CF91089560E07BE480E090E08EDFBA9A1E
S11301B002E610E0C9E7D0E0809176001F928F93A9
S11301C01F930F93DF93CF9329D089E790E0DFDF6C
S11301D08EEE92E064DFC29A84E690E060DFC2981B
S11301E0809176008F5F809376000F900F900F9030
S11301F00F900F900F90E0CF5527002480FF02C08E
S1130200060E571F660F771F6115710521F096952D
S11302108795009799F7952F802D0895A0E1B0E078
S1130220E3E1F1E0A3C20F89188D86E08C831A8381
S113023009838FEF9FE79E838D83AE01455E5F4FF9
S1130240588B4F87698D7A8DCE01019608D0EF8146
S1130250F885E00FF11F10826096E4E0A3C2ACE0E1
S1130260B0E0E4E3F1E074C27C016B018A01FC01BB
S113027017821682838181FFBAC188248394912CCA
S11302808C0E9D1EF7019381F60193FD859193FFDA
S113029081916F01882309F4A6C1853239F493FD55
S11302A0859193FF81916F01853221F4B70190E02C
S11302B0BAD1E8CF712C312C20E02032A8F48B3253
S11302C061F028F4803251F0833271F40BC08D3226
S11302D039F0803349F4216028C02260246025C0AD
S11302E0286023C0206121C027FD27C0382F305348
S11302F03A3078F426FF06C0872D6AE020D2782EA3
S1130300730E13C0832D6AE01AD2382E330E206286
S11303100CC08E3221F426FD66C1206406C08C36E2
S113032011F4206802C0883641F4F60193FD8591EA
S113033093FF81916F018111C0CF982F9554933011
S113034018F09052933028F40C5F1F4FFFE3F983A9
S11303500DC0833631F0833771F0833509F05AC00C
S113036022C0F801808189830E5F1F4F6624639445
S1130370712C540114C02801F2E04F0E511CF801F5
S1130380A080B18026FF03C0672D70E002C06FEF2C
S11303907FEFC5012C873CD13C0182012C856FE79E
S11303A0262E222217C02801F2E04F0E511CF8011C
S11303B0A080B18026FF03C0672D70E002C06FEFFC
S11303C07FEFC5012C8719D13C012C8550E8252EDF
S11303D0222A820123FC1AC005C0B70180E290E002
S11303E022D13A94832D90E068167906B0F30EC0BA
S11303F0F50127FC859127FE81915F01B70190E00B
S113040012D131103A94F1E06F1A71086114710439
S113041079F7E6C0843611F0893639F5F80127FFFB
S113042007C060817181828193810C5F1F4F08C076
S113043060817181882777FD8095982F0E5F1F4F0B
S11304404FE6642E622297FF09C0909580957095BF
S113045061957F4F8F4F9F4FF0E86F2A2AE030E07D
S1130460A4010DD1A82EA81843C0853731F43FEE5E
S1130470B32EB2222AE030E024C099EFB92EB22282
S11304808F36B9F020F4883509F0ADC00DC080373F
S113049021F0883709F0A7C002C020E1B22AB4FED7
S11304A00BC084E0B82A08C024FF09C0E6E0BE2AD5
S11304B006C028E030E005C020E130E002C020E1C1
S11304C032E0F801B7FE07C06081718182819381B7
S11304D00C5F1F4F06C06081718180E090E00E5F69
S11304E01F4FA401CCD0A82EA8188FE7682E6B202C
S11304F066FE0BC0362D3E7FA71450F464FE0AC07E
S113050062FC08C0362D3E7E05C0BA2C362D03C0D1
S1130510BA2C01C0B72C34FF0DC0FE01EA0DF11D49
S11305208081803311F4397E09C032FF06C0B39450
S1130530B39404C0832F867809F0B39433FD13C0B9
S113054030FF0EC07A2CB31458F4730C7B18B32C00
S113055007C0B70180E290E03C8765D0B3943C8546
S1130560B314B8F304C0B31410F43B1801C0312C15
S113057034FF11C0B70180E390E03C8754D03C8540
S113058032FF1CC031FF03C088E590E002C088E759
S113059090E0B7010CC0832F867881F031FD02C052
S11305A080E201C08BE237FD8DE2B70190E03BD0E1
S11305B005C0B70180E390E036D07A94A714C8F35D
S11305C0AA94F401EA0DF11DB701808190E02BD0CB
S11305D0A110F6CF05C0B70180E290E024D03A9490
S11305E03110F9CF4FCEF7012681378102C02FEFAA
S11305F03FEFC9012C96E2E1C7C0FC0105906150B0
S113060070400110D8F7809590958E0F9F1F089524
S1130610FC016150704001900110D8F780959095CD
S11306208E0F9F1F08950F931F93CF93DF938C0119
S1130630EB018B8181FD03C00FEF1FEF1AC082FF16
S11306400DC02E813F818C819D812817390764F468
S1130650E881F9810193F983E88306C0E885F98587
S1130660802F0995892B41F78E819F8101969F8365
S11306708E83C801DF91CF911F910F910895FA01E4
S1130680AA27283061F1203191F1E8946F936E7FAD
S11306906E5F7F4F8F4F9F4FAF4FB1E040D0B4E0BC
S11306A03ED0670F781F891F9A1FA11D680F791FFD
S11306B08A1F911DA11D6A0F711D811D911DA11D10
S11306C022D009F468943F91062E000C3019000CD6
S11306D0000C3019305D3193CEF6CF010895462FCA
S11306E04770405D4193B3E00FD0C9F7F6CF462F72
S11306F04F70405D4A3318F0495D31FD40524193DB
S113070002D0A9F7EACFB4E0A69597958795779597
S11307106795BA95C9F700976105710508959B011E
S1130720AC010A2E06945795479537952795BA95A7
S1130730C9F7620F731F841F951FA01D089500241D
S113074080FD060E660F11F08695D1F7802D089571
S11307502F923F924F925F926F927F928F929F92CD
S1130760AF92BF92CF92DF92EF92FF920F931F93BB
S1130770CF93DF93CDB7DEB7CA1BDB0B0FB6F8946C
S1130780DEBF0FBECDBF09942A88398848885F84AC
S11307906E847D848C849B84AA84B984C884DF801D
S11307A0EE80FD800C811B81AA81B981CE0FD11D01
S11307B00FB6F894DEBF0FBECDBFED010895F894D7
S10507C0FFCF65
S11307C2040056616C7565206F6620692069732088
S10907D22569200A000065
S9030000FC
