:100000000EC028C027C026C025C024C023C022C0DF
:1000100021C020C01FC01EC01DC01CC01BC0112499
:100020001FBECFE5D2E0DEBFCDBF10E0A0E6B0E05E
:10003000E4EEF1E002C005900D92A636B107D9F7C3
:1000400010E0A6E6B0E001C01D92AF36B107E1F7BF
:1000500067D0C6C0D5CF96E896B9823011F481E258
:1000600007C0833011F483E203C0843011F482E2CC
:1000700087B90895369A3699FECF85B1089520E064
:1000800030E008C0EFECF7E03197F1F700C0000076
:100090002F5F3F4F28173907A9F708958091640013
:1000A000880F880F80936400B39B03C081608093A6
:1000B0006400B49B05C080916400826080936400FA
:1000C000809164008F708093640090916600992302
:1000D00031F08F3009F01FC0109266001CC08E30C6
:1000E00049F480916700909168008C3F910598F4E5
:1000F00003960AC08D3079F4809167009091680072
:100100008430910540F003979093680080936700D6
:1001100081E0809366008091670090916800089567
:10012000B89A83E098DF80E889BD8AB580688ABD87
:100130008AB581608ABD8AB582608ABD83B78260D4
:1001400083BF78948091600090916100209162005B
:1001500030916300821B930B90936C0080936B0033
:1001600089DF90E090936E0080936D0020916B008A
:1001700030916C004091620050916300841B950B9C
:10018000B90108D0B90118D06093690070936A0072
:1001900069BDE6CF5527002480FF02C0060E571F19
:1001A000660F771F6115710521F096958795009769
:1001B00099F7952F802D0895AA1BBB1B51E107C00D
:1001C000AA1FBB1FA617B70710F0A61BB70B881FE7
:1001D000991F5A95A9F780959095BC01CD01089576
:0401E000F894FFCFC1
:0601E400FF000A00030009
:00000001FF
