S01300006C6967687473656E736F722E737265635F
S11300000EC01DC01CC01BC01AC019C018C017C028
S113001016C015C014C013C031C011C010C01124C3
S11300201FBECFE5D2E0DEBFCDBF10E0A0E6B0E05A
S113003001C01D92A136B107E1F74DD05CC0E0CFFD
S1130040A89581B5886181BD81B5876081BD81B581
S1130050806481BD7894089585B7877E806185BF6B
S113006085B7806285BF85B7806285BF889585B76F
S11300708F7D85BF85B78F7D85BF08951F920F92B1
S11300800FB60F9211240F900FBE0F901F9018956A
S113009096E896B9823011F481E207C0833011F4F6
S11300A083E203C0843011F482E287B90895369A5A
S11300B03699FECF85B1089520E030E008C0EFEC1A
S11300C0F7E03197F1F700C000002F5F3F4F28178A
S11300D03907A9F7089582E0DBDFB2DFBB9ABCDF02
S11300E0E6DF80936000863FD0F3C39A82EC91E010
S10D00F0E3DFC398F4CFF894FFCFC8
S9030000FC
