:100000000EC028C027C026C025C024C023C022C0DF
:1000100021C020C01FC01EC01DC01CC01BC0112499
:100020001FBECFE5D2E0DEBFCDBF10E0A0E6B0E05E
:10003000EAE4F1E002C005900D92A236B107D9F7CB
:1000400010E0A2E6B0E001C01D92A536B107E1F7CD
:1000500067D079C0D5CF96E896B9823011F481E2A5
:1000600007C0833011F483E203C0843011F482E2CC
:1000700087B90895369A3699FECF85B1089520E064
:1000800030E008C0EFECF7E03197F1F700C0000076
:100090002F5F3F4F28173907A9F708958091600017
:1000A000880F880F80936000B39B03C081608093AA
:1000B0006000B49B05C08091600082608093600006
:1000C000809160008F70809360009091620099230E
:1000D00031F08F3009F01FC0109262001CC08E30CA
:1000E00049F480916300909164008C3F910598F4ED
:1000F00003960AC08D3079F480916300909164007A
:100100008430910540F003979093640080936300DE
:1001100081E0809362008091630090916400089573
:10012000B89A80E889BD8AB580688ABD8AB5816041
:100130008ABD8AB582608ABD83B7826083BF7894A6
:0A014000ADDF89BDFDCFF894FFCFBD
:02014A000300B0
:00000001FF
